{
  "contractName": "HealthDRS",
  "abi": [
    {
      "constant": true,
      "inputs": [
        {
          "name": "",
          "type": "bytes32"
        }
      ],
      "name": "services",
      "outputs": [
        {
          "name": "url",
          "type": "string"
        },
        {
          "name": "owner",
          "type": "address"
        }
      ],
      "payable": false,
      "stateMutability": "view",
      "type": "function"
    },
    {
      "constant": true,
      "inputs": [
        {
          "name": "",
          "type": "uint256"
        }
      ],
      "name": "keyList",
      "outputs": [
        {
          "name": "",
          "type": "bytes32"
        }
      ],
      "payable": false,
      "stateMutability": "view",
      "type": "function"
    },
    {
      "constant": true,
      "inputs": [
        {
          "name": "",
          "type": "bytes32"
        }
      ],
      "name": "tradeOffers",
      "outputs": [
        {
          "name": "",
          "type": "bytes32"
        }
      ],
      "payable": false,
      "stateMutability": "view",
      "type": "function"
    },
    {
      "constant": true,
      "inputs": [],
      "name": "version",
      "outputs": [
        {
          "name": "",
          "type": "uint8"
        }
      ],
      "payable": false,
      "stateMutability": "view",
      "type": "function"
    },
    {
      "constant": false,
      "inputs": [],
      "name": "renounceOwnership",
      "outputs": [],
      "payable": false,
      "stateMutability": "nonpayable",
      "type": "function"
    },
    {
      "constant": true,
      "inputs": [
        {
          "name": "",
          "type": "bytes32"
        },
        {
          "name": "",
          "type": "uint256"
        }
      ],
      "name": "owners",
      "outputs": [
        {
          "name": "",
          "type": "address"
        }
      ],
      "payable": false,
      "stateMutability": "view",
      "type": "function"
    },
    {
      "constant": true,
      "inputs": [],
      "name": "owner",
      "outputs": [
        {
          "name": "",
          "type": "address"
        }
      ],
      "payable": false,
      "stateMutability": "view",
      "type": "function"
    },
    {
      "constant": true,
      "inputs": [],
      "name": "isOwner",
      "outputs": [
        {
          "name": "",
          "type": "bool"
        }
      ],
      "payable": false,
      "stateMutability": "view",
      "type": "function"
    },
    {
      "constant": true,
      "inputs": [
        {
          "name": "",
          "type": "bytes32"
        }
      ],
      "name": "salesOffers",
      "outputs": [
        {
          "name": "buyer",
          "type": "address"
        },
        {
          "name": "price",
          "type": "uint256"
        },
        {
          "name": "canSell",
          "type": "bool"
        }
      ],
      "payable": false,
      "stateMutability": "view",
      "type": "function"
    },
    {
      "constant": true,
      "inputs": [],
      "name": "latestContract",
      "outputs": [
        {
          "name": "",
          "type": "address"
        }
      ],
      "payable": false,
      "stateMutability": "view",
      "type": "function"
    },
    {
      "constant": true,
      "inputs": [
        {
          "name": "",
          "type": "bytes32"
        }
      ],
      "name": "keyData",
      "outputs": [
        {
          "name": "",
          "type": "bytes32"
        }
      ],
      "payable": false,
      "stateMutability": "view",
      "type": "function"
    },
    {
      "constant": true,
      "inputs": [
        {
          "name": "",
          "type": "uint256"
        }
      ],
      "name": "serviceList",
      "outputs": [
        {
          "name": "",
          "type": "bytes32"
        }
      ],
      "payable": false,
      "stateMutability": "view",
      "type": "function"
    },
    {
      "constant": false,
      "inputs": [
        {
          "name": "newOwner",
          "type": "address"
        }
      ],
      "name": "transferOwnership",
      "outputs": [],
      "payable": false,
      "stateMutability": "nonpayable",
      "type": "function"
    },
    {
      "payable": false,
      "stateMutability": "nonpayable",
      "type": "fallback"
    },
    {
      "anonymous": false,
      "inputs": [
        {
          "indexed": true,
          "name": "_owner",
          "type": "address"
        },
        {
          "indexed": true,
          "name": "_service",
          "type": "bytes32"
        }
      ],
      "name": "ServiceCreated",
      "type": "event"
    },
    {
      "anonymous": false,
      "inputs": [
        {
          "indexed": true,
          "name": "_owner",
          "type": "address"
        },
        {
          "indexed": true,
          "name": "_key",
          "type": "bytes32"
        }
      ],
      "name": "KeyCreated",
      "type": "event"
    },
    {
      "anonymous": false,
      "inputs": [
        {
          "indexed": false,
          "name": "_key",
          "type": "bytes32"
        },
        {
          "indexed": true,
          "name": "_seller",
          "type": "address"
        },
        {
          "indexed": true,
          "name": "_buyer",
          "type": "address"
        },
        {
          "indexed": false,
          "name": "_price",
          "type": "uint256"
        }
      ],
      "name": "KeySold",
      "type": "event"
    },
    {
      "anonymous": false,
      "inputs": [
        {
          "indexed": true,
          "name": "_key1",
          "type": "bytes32"
        },
        {
          "indexed": true,
          "name": "_key2",
          "type": "bytes32"
        }
      ],
      "name": "KeysTraded",
      "type": "event"
    },
    {
      "anonymous": false,
      "inputs": [
        {
          "indexed": true,
          "name": "_owner",
          "type": "address"
        },
        {
          "indexed": true,
          "name": "_from",
          "type": "bytes32"
        },
        {
          "indexed": true,
          "name": "_to",
          "type": "bytes32"
        },
        {
          "indexed": false,
          "name": "_time",
          "type": "uint256"
        },
        {
          "indexed": false,
          "name": "_data",
          "type": "string"
        }
      ],
      "name": "Access",
      "type": "event"
    },
    {
      "anonymous": false,
      "inputs": [
        {
          "indexed": true,
          "name": "_owner",
          "type": "address"
        },
        {
          "indexed": true,
          "name": "_from",
          "type": "bytes32"
        },
        {
          "indexed": true,
          "name": "_to",
          "type": "bytes32"
        },
        {
          "indexed": false,
          "name": "_time",
          "type": "uint256"
        },
        {
          "indexed": false,
          "name": "_category",
          "type": "string"
        },
        {
          "indexed": false,
          "name": "_data",
          "type": "string"
        }
      ],
      "name": "Message",
      "type": "event"
    },
    {
      "anonymous": false,
      "inputs": [
        {
          "indexed": true,
          "name": "_owner",
          "type": "address"
        },
        {
          "indexed": true,
          "name": "_from",
          "type": "bytes32"
        },
        {
          "indexed": false,
          "name": "_time",
          "type": "uint256"
        },
        {
          "indexed": false,
          "name": "_data",
          "type": "string"
        }
      ],
      "name": "Log",
      "type": "event"
    },
    {
      "anonymous": false,
      "inputs": [
        {
          "indexed": true,
          "name": "previousOwner",
          "type": "address"
        },
        {
          "indexed": true,
          "name": "newOwner",
          "type": "address"
        }
      ],
      "name": "OwnershipTransferred",
      "type": "event"
    },
    {
      "constant": true,
      "inputs": [
        {
          "name": "key",
          "type": "bytes32"
        },
        {
          "name": "account",
          "type": "address"
        }
      ],
      "name": "isKeyOwner",
      "outputs": [
        {
          "name": "",
          "type": "bool"
        }
      ],
      "payable": false,
      "stateMutability": "view",
      "type": "function"
    },
    {
      "constant": true,
      "inputs": [
        {
          "name": "service",
          "type": "bytes32"
        },
        {
          "name": "account",
          "type": "address"
        }
      ],
      "name": "isServiceOwner",
      "outputs": [
        {
          "name": "",
          "type": "bool"
        }
      ],
      "payable": false,
      "stateMutability": "view",
      "type": "function"
    },
    {
      "constant": true,
      "inputs": [
        {
          "name": "service",
          "type": "bytes32"
        }
      ],
      "name": "getUrl",
      "outputs": [
        {
          "name": "",
          "type": "string"
        }
      ],
      "payable": false,
      "stateMutability": "view",
      "type": "function"
    },
    {
      "constant": true,
      "inputs": [
        {
          "name": "key",
          "type": "bytes32"
        }
      ],
      "name": "getUrlFromKey",
      "outputs": [
        {
          "name": "",
          "type": "string"
        }
      ],
      "payable": false,
      "stateMutability": "view",
      "type": "function"
    },
    {
      "constant": false,
      "inputs": [
        {
          "name": "service",
          "type": "bytes32"
        },
        {
          "name": "url",
          "type": "string"
        }
      ],
      "name": "updateUrl",
      "outputs": [],
      "payable": false,
      "stateMutability": "nonpayable",
      "type": "function"
    },
    {
      "constant": true,
      "inputs": [
        {
          "name": "key",
          "type": "bytes32"
        }
      ],
      "name": "getOwnersLength",
      "outputs": [
        {
          "name": "",
          "type": "uint256"
        }
      ],
      "payable": false,
      "stateMutability": "view",
      "type": "function"
    },
    {
      "constant": false,
      "inputs": [
        {
          "name": "_contract",
          "type": "address"
        }
      ],
      "name": "setLatestContract",
      "outputs": [],
      "payable": false,
      "stateMutability": "nonpayable",
      "type": "function"
    },
    {
      "constant": false,
      "inputs": [
        {
          "name": "url",
          "type": "string"
        }
      ],
      "name": "createService",
      "outputs": [],
      "payable": false,
      "stateMutability": "nonpayable",
      "type": "function"
    },
    {
      "constant": false,
      "inputs": [
        {
          "name": "service",
          "type": "bytes32"
        }
      ],
      "name": "createKey",
      "outputs": [],
      "payable": false,
      "stateMutability": "nonpayable",
      "type": "function"
    },
    {
      "constant": false,
      "inputs": [
        {
          "name": "service",
          "type": "bytes32"
        },
        {
          "name": "issueTo",
          "type": "address"
        }
      ],
      "name": "issueKey",
      "outputs": [],
      "payable": false,
      "stateMutability": "nonpayable",
      "type": "function"
    },
    {
      "constant": false,
      "inputs": [
        {
          "name": "key",
          "type": "bytes32"
        },
        {
          "name": "account",
          "type": "address"
        }
      ],
      "name": "shareKey",
      "outputs": [],
      "payable": false,
      "stateMutability": "nonpayable",
      "type": "function"
    },
    {
      "constant": false,
      "inputs": [
        {
          "name": "service",
          "type": "bytes32"
        },
        {
          "name": "account",
          "type": "address"
        }
      ],
      "name": "shareService",
      "outputs": [],
      "payable": false,
      "stateMutability": "nonpayable",
      "type": "function"
    },
    {
      "constant": false,
      "inputs": [
        {
          "name": "key",
          "type": "bytes32"
        },
        {
          "name": "account",
          "type": "address"
        }
      ],
      "name": "unshareKey",
      "outputs": [],
      "payable": false,
      "stateMutability": "nonpayable",
      "type": "function"
    },
    {
      "constant": false,
      "inputs": [
        {
          "name": "service",
          "type": "bytes32"
        },
        {
          "name": "account",
          "type": "address"
        }
      ],
      "name": "unshareService",
      "outputs": [],
      "payable": false,
      "stateMutability": "nonpayable",
      "type": "function"
    },
    {
      "constant": false,
      "inputs": [
        {
          "name": "key",
          "type": "bytes32"
        },
        {
          "name": "buyer",
          "type": "address"
        },
        {
          "name": "price",
          "type": "uint256"
        },
        {
          "name": "_canSell",
          "type": "bool"
        }
      ],
      "name": "createSalesOffer",
      "outputs": [],
      "payable": false,
      "stateMutability": "nonpayable",
      "type": "function"
    },
    {
      "constant": false,
      "inputs": [
        {
          "name": "key",
          "type": "bytes32"
        }
      ],
      "name": "cancelSalesOffer",
      "outputs": [],
      "payable": false,
      "stateMutability": "nonpayable",
      "type": "function"
    },
    {
      "constant": false,
      "inputs": [
        {
          "name": "key",
          "type": "bytes32"
        }
      ],
      "name": "purchaseKey",
      "outputs": [],
      "payable": false,
      "stateMutability": "nonpayable",
      "type": "function"
    },
    {
      "constant": false,
      "inputs": [
        {
          "name": "have",
          "type": "bytes32"
        },
        {
          "name": "want",
          "type": "bytes32"
        }
      ],
      "name": "createTradeOffer",
      "outputs": [],
      "payable": false,
      "stateMutability": "nonpayable",
      "type": "function"
    },
    {
      "constant": false,
      "inputs": [
        {
          "name": "key",
          "type": "bytes32"
        }
      ],
      "name": "cancelTradeOffer",
      "outputs": [],
      "payable": false,
      "stateMutability": "nonpayable",
      "type": "function"
    },
    {
      "constant": false,
      "inputs": [
        {
          "name": "have",
          "type": "bytes32"
        },
        {
          "name": "want",
          "type": "bytes32"
        }
      ],
      "name": "tradeKey",
      "outputs": [],
      "payable": false,
      "stateMutability": "nonpayable",
      "type": "function"
    },
    {
      "constant": false,
      "inputs": [
        {
          "name": "key",
          "type": "bytes32"
        },
        {
          "name": "canShare_",
          "type": "bool"
        },
        {
          "name": "canTrade_",
          "type": "bool"
        },
        {
          "name": "canSell_",
          "type": "bool"
        }
      ],
      "name": "setKeyPermissions",
      "outputs": [],
      "payable": false,
      "stateMutability": "nonpayable",
      "type": "function"
    },
    {
      "constant": true,
      "inputs": [],
      "name": "getServiceCount",
      "outputs": [
        {
          "name": "",
          "type": "uint256"
        }
      ],
      "payable": false,
      "stateMutability": "view",
      "type": "function"
    },
    {
      "constant": true,
      "inputs": [],
      "name": "getKeyCount",
      "outputs": [
        {
          "name": "",
          "type": "uint256"
        }
      ],
      "payable": false,
      "stateMutability": "view",
      "type": "function"
    },
    {
      "constant": true,
      "inputs": [
        {
          "name": "service",
          "type": "bytes32"
        }
      ],
      "name": "getService",
      "outputs": [
        {
          "name": "",
          "type": "string"
        },
        {
          "name": "",
          "type": "address"
        }
      ],
      "payable": false,
      "stateMutability": "view",
      "type": "function"
    },
    {
      "constant": true,
      "inputs": [
        {
          "name": "key",
          "type": "bytes32"
        }
      ],
      "name": "getKey",
      "outputs": [
        {
          "name": "",
          "type": "address"
        },
        {
          "name": "",
          "type": "bool"
        },
        {
          "name": "",
          "type": "bool"
        },
        {
          "name": "",
          "type": "bool"
        },
        {
          "name": "",
          "type": "bytes32"
        }
      ],
      "payable": false,
      "stateMutability": "view",
      "type": "function"
    },
    {
      "constant": false,
      "inputs": [
        {
          "name": "key",
          "type": "bytes32"
        },
        {
          "name": "dataKey",
          "type": "bytes32"
        },
        {
          "name": "dataValue",
          "type": "bytes32"
        }
      ],
      "name": "setKeyData",
      "outputs": [],
      "payable": false,
      "stateMutability": "nonpayable",
      "type": "function"
    },
    {
      "constant": true,
      "inputs": [
        {
          "name": "key",
          "type": "bytes32"
        },
        {
          "name": "dataKey",
          "type": "bytes32"
        }
      ],
      "name": "getKeyData",
      "outputs": [
        {
          "name": "",
          "type": "bytes32"
        }
      ],
      "payable": false,
      "stateMutability": "view",
      "type": "function"
    },
    {
      "constant": true,
      "inputs": [
        {
          "name": "msgHash",
          "type": "bytes32"
        },
        {
          "name": "v",
          "type": "uint8"
        },
        {
          "name": "r",
          "type": "bytes32"
        },
        {
          "name": "s",
          "type": "bytes32"
        }
      ],
      "name": "recoverAddress",
      "outputs": [
        {
          "name": "",
          "type": "address"
        }
      ],
      "payable": false,
      "stateMutability": "pure",
      "type": "function"
    },
    {
      "constant": false,
      "inputs": [
        {
          "name": "key",
          "type": "bytes32"
        },
        {
          "name": "data",
          "type": "string"
        }
      ],
      "name": "logAccess",
      "outputs": [],
      "payable": false,
      "stateMutability": "nonpayable",
      "type": "function"
    },
    {
      "constant": false,
      "inputs": [
        {
          "name": "from",
          "type": "bytes32"
        },
        {
          "name": "to",
          "type": "bytes32"
        },
        {
          "name": "category",
          "type": "string"
        },
        {
          "name": "data",
          "type": "string"
        }
      ],
      "name": "message",
      "outputs": [],
      "payable": false,
      "stateMutability": "nonpayable",
      "type": "function"
    },
    {
      "constant": false,
      "inputs": [
        {
          "name": "from",
          "type": "bytes32"
        },
        {
          "name": "data",
          "type": "string"
        }
      ],
      "name": "log",
      "outputs": [],
      "payable": false,
      "stateMutability": "nonpayable",
      "type": "function"
    }
  ],
  "bytecode": "0x608060405230600160006101000a81548173ffffffffffffffffffffffffffffffffffffffff021916908373ffffffffffffffffffffffffffffffffffffffff16021790555060018060146101000a81548160ff021916908360ff160217905550336000806101000a81548173ffffffffffffffffffffffffffffffffffffffff021916908373ffffffffffffffffffffffffffffffffffffffff1602179055506000809054906101000a900473ffffffffffffffffffffffffffffffffffffffff1673ffffffffffffffffffffffffffffffffffffffff16600073ffffffffffffffffffffffffffffffffffffffff167f8be0079c531659141344cd1fd0a4f28419497f9722a3daafe3b4186f6b6457e060405160405180910390a36152278061012b6000396000f3fe608060405234801561001057600080fd5b50600436106102745760003560e01c8063893cebb311610151578063bd293dca116100c3578063ee1ce84111610087578063ee1ce84114611226578063ee29ce1514611244578063f2fde38b14611292578063f6efcb7a146112d6578063f9a8f79714611318578063fd810eb31461135c57610274565b8063bd293dca1461102c578063bfd8fc931461106e578063c53df937146110b0578063c74ca049146110fe578063da47d8561461114c57610274565b80639dc1d961116101155780639dc1d96114610d5e578063a0a172d314610ec4578063a2ee400014610f44578063a6a54f0c14610f72578063a9711ee314610fbc578063b795dffe14610ffe57610274565b8063893cebb314610be85780638a7aefbd14610c4c5780638da5cb5b14610cc45780638f32d59b14610d0e5780639cd1907414610d3057610274565b80633672404e116101ea5780635d8d2904116101ae5780635d8d290414610a29578063715018a614610a7b57806381f59f5114610a855780638428cf8314610ad357806385550c6b14610b6257806385cc9a2b14610b9a57610274565b80633672404e1461088457806352578012146108a2578063536d888b1461095d57806353ff7b1d146109c357806354fd4d5014610a0557610274565b80631ce05c451161023c5780631ce05c451461059b5780632239e688146105dd5780632d599750146106845780632df6e80a14610749578063334f22c71461077757806333c9ccf51461081e57610274565b80630a790eb7146102e25780630be0f677146103bc57806310a101df1461048157806312aaac70146104cd5780631822b88614610563575b6040517f08c379a00000000000000000000000000000000000000000000000000000000081526004018080602001828103825260198152602001807f66756e6374696f6e2829206c696e6520313034206572726f720000000000000081525060200191505060405180910390fd5b61030e600480360360208110156102f857600080fd5b8101908080359060200190929190505050611421565b60405180806020018373ffffffffffffffffffffffffffffffffffffffff1673ffffffffffffffffffffffffffffffffffffffff168152602001828103825284818151815260200191508051906020019080838360005b83811015610380578082015181840152602081019050610365565b50505050905090810190601f1680156103ad5780820380516001836020036101000a031916815260200191505b50935050505060405180910390f35b61047f600480360360408110156103d257600080fd5b8101908080359060200190929190803590602001906401000000008111156103f957600080fd5b82018360208201111561040b57600080fd5b8035906020019184600183028401116401000000008311171561042d57600080fd5b91908080601f016020809104026020016040519081016040528093929190818152602001838380828437600081840152601f19601f8201169050808301925050505050505091929192905050506114fd565b005b6104b76004803603604081101561049757600080fd5b8101908080359060200190929190803590602001909291905050506116b9565b6040518082815260200191505060405180910390f35b6104f9600480360360208110156104e357600080fd5b81019080803590602001909291905050506117e0565b604051808673ffffffffffffffffffffffffffffffffffffffff1673ffffffffffffffffffffffffffffffffffffffff1681526020018515151515815260200184151515158152602001831515151581526020018281526020019550505050505060405180910390f35b6105996004803603604081101561057957600080fd5b810190808035906020019092919080359060200190929190505050611990565b005b6105c7600480360360208110156105b157600080fd5b8101908080359060200190929190505050611ce2565b6040518082815260200191505060405180910390f35b610609600480360360208110156105f357600080fd5b8101908080359060200190929190505050611d03565b6040518080602001828103825283818151815260200191508051906020019080838360005b8381101561064957808201518184015260208101905061062e565b50505050905090810190601f1680156106765780820380516001836020036101000a031916815260200191505b509250505060405180910390f35b6107476004803603604081101561069a57600080fd5b8101908080359060200190929190803590602001906401000000008111156106c157600080fd5b8201836020820111156106d357600080fd5b803590602001918460018302840111640100000000831117156106f557600080fd5b91908080601f016020809104026020016040519081016040528093929190818152602001838380828437600081840152601f19601f820116905080830192505050505050509192919290505050611eac565b005b6107756004803603602081101561075f57600080fd5b8101908080359060200190929190505050611f59565b005b6107a36004803603602081101561078d57600080fd5b8101908080359060200190929190505050611ff5565b6040518080602001828103825283818151815260200191508051906020019080838360005b838110156107e35780820151818401526020810190506107c8565b50505050905090810190601f1680156108105780820380516001836020036101000a031916815260200191505b509250505060405180910390f35b61086a6004803603604081101561083457600080fd5b8101908080359060200190929190803573ffffffffffffffffffffffffffffffffffffffff169060200190929190505050612188565b604051808215151515815260200191505060405180910390f35b61088c6123c5565b6040518082815260200191505060405180910390f35b61095b600480360360208110156108b857600080fd5b81019080803590602001906401000000008111156108d557600080fd5b8201836020820111156108e757600080fd5b8035906020019184600183028401116401000000008311171561090957600080fd5b91908080601f016020809104026020016040519081016040528093929190818152602001838380828437600081840152601f19601f8201169050808301925050505050505091929192905050506123d2565b005b6109a96004803603604081101561097357600080fd5b8101908080359060200190929190803573ffffffffffffffffffffffffffffffffffffffff169060200190929190505050612662565b604051808215151515815260200191505060405180910390f35b6109ef600480360360208110156109d957600080fd5b8101908080359060200190929190505050612875565b6040518082815260200191505060405180910390f35b610a0d61288d565b604051808260ff1660ff16815260200191505060405180910390f35b610a7960048036036080811015610a3f57600080fd5b81019080803590602001909291908035151590602001909291908035151590602001909291908035151590602001909291905050506128a0565b005b610a83612ba6565b005b610ad160048036036040811015610a9b57600080fd5b8101908080359060200190929190803573ffffffffffffffffffffffffffffffffffffffff169060200190929190505050612cdf565b005b610b2060048036036080811015610ae957600080fd5b8101908080359060200190929190803560ff1690602001909291908035906020019092919080359060200190929190505050612def565b604051808273ffffffffffffffffffffffffffffffffffffffff1673ffffffffffffffffffffffffffffffffffffffff16815260200191505060405180910390f35b610b9860048036036040811015610b7857600080fd5b810190808035906020019092919080359060200190929190505050612e62565b005b610be660048036036040811015610bb057600080fd5b8101908080359060200190929190803573ffffffffffffffffffffffffffffffffffffffff169060200190929190505050613332565b005b610c4a60048036036080811015610bfe57600080fd5b8101908080359060200190929190803573ffffffffffffffffffffffffffffffffffffffff169060200190929190803590602001909291908035151590602001909291905050506135d4565b005b610c8260048036036040811015610c6257600080fd5b8101908080359060200190929190803590602001909291905050506137e9565b604051808273ffffffffffffffffffffffffffffffffffffffff1673ffffffffffffffffffffffffffffffffffffffff16815260200191505060405180910390f35b610ccc613834565b604051808273ffffffffffffffffffffffffffffffffffffffff1673ffffffffffffffffffffffffffffffffffffffff16815260200191505060405180910390f35b610d1661385d565b604051808215151515815260200191505060405180910390f35b610d5c60048036036020811015610d4657600080fd5b81019080803590602001909291905050506138b4565b005b610ec260048036036080811015610d7457600080fd5b81019080803590602001909291908035906020019092919080359060200190640100000000811115610da557600080fd5b820183602082011115610db757600080fd5b80359060200191846001830284011164010000000083111715610dd957600080fd5b91908080601f016020809104026020016040519081016040528093929190818152602001838380828437600081840152601f19601f82011690508083019250505050505050919291929080359060200190640100000000811115610e3c57600080fd5b820183602082011115610e4e57600080fd5b80359060200191846001830284011164010000000083111715610e7057600080fd5b91908080601f016020809104026020016040519081016040528093929190818152602001838380828437600081840152601f19601f82011690508083019250505050505050919291929050505061393f565b005b610ef060048036036020811015610eda57600080fd5b8101908080359060200190929190505050613cb2565b604051808473ffffffffffffffffffffffffffffffffffffffff1673ffffffffffffffffffffffffffffffffffffffff16815260200183815260200182151515158152602001935050505060405180910390f35b610f7060048036036020811015610f5a57600080fd5b8101908080359060200190929190505050613d09565b005b610f7a613e2b565b604051808273ffffffffffffffffffffffffffffffffffffffff1673ffffffffffffffffffffffffffffffffffffffff16815260200191505060405180910390f35b610fe860048036036020811015610fd257600080fd5b8101908080359060200190929190505050613e51565b6040518082815260200191505060405180910390f35b61102a6004803603602081101561101457600080fd5b8101908080359060200190929190505050613e69565b005b6110586004803603602081101561104257600080fd5b8101908080359060200190929190505050614178565b6040518082815260200191505060405180910390f35b61109a6004803603602081101561108457600080fd5b8101908080359060200190929190505050614199565b6040518082815260200191505060405180910390f35b6110fc600480360360408110156110c657600080fd5b8101908080359060200190929190803573ffffffffffffffffffffffffffffffffffffffff1690602001909291905050506141b9565b005b61114a6004803603604081101561111457600080fd5b8101908080359060200190929190803573ffffffffffffffffffffffffffffffffffffffff1690602001909291905050506143fe565b005b6111786004803603602081101561116257600080fd5b8101908080359060200190929190505050614643565b60405180806020018373ffffffffffffffffffffffffffffffffffffffff1673ffffffffffffffffffffffffffffffffffffffff168152602001828103825284818151815260200191508051906020019080838360005b838110156111ea5780820151818401526020810190506111cf565b50505050905090810190601f1680156112175780820380516001836020036101000a031916815260200191505b50935050505060405180910390f35b61122e614814565b6040518082815260200191505060405180910390f35b6112906004803603604081101561125a57600080fd5b8101908080359060200190929190803573ffffffffffffffffffffffffffffffffffffffff169060200190929190505050614821565b005b6112d4600480360360208110156112a857600080fd5b81019080803573ffffffffffffffffffffffffffffffffffffffff1690602001909291905050506149c9565b005b611316600480360360608110156112ec57600080fd5b81019080803590602001909291908035906020019092919080359060200190929190505050614a4f565b005b61135a6004803603602081101561132e57600080fd5b81019080803573ffffffffffffffffffffffffffffffffffffffff169060200190929190505050614c09565b005b61141f6004803603604081101561137257600080fd5b81019080803590602001909291908035906020019064010000000081111561139957600080fd5b8201836020820111156113ab57600080fd5b803590602001918460018302840111640100000000831117156113cd57600080fd5b91908080601f016020809104026020016040519081016040528093929190818152602001838380828437600081840152601f19601f820116905080830192505050505050509192919290505050614cc7565b005b6002602052806000526040600020600091509050806000018054600181600116156101000203166002900480601f0160208091040260200160405190810160405280929190818152602001828054600181600116156101000203166002900480156114cd5780601f106114a2576101008083540402835291602001916114cd565b820191906000526020600020905b8154815290600101906020018083116114b057829003601f168201915b5050505050908060010160009054906101000a900473ffffffffffffffffffffffffffffffffffffffff16905082565b600073ffffffffffffffffffffffffffffffffffffffff166004600084815260200190815260200160002060000160009054906101000a900473ffffffffffffffffffffffffffffffffffffffff1673ffffffffffffffffffffffffffffffffffffffff161415801561157657506115758233612188565b5b8061158757506115868233612662565b5b6115f9576040517f08c379a000000000000000000000000000000000000000000000000000000000815260040180806020018281038252600b8152602001807f6c6f672829206572726f7200000000000000000000000000000000000000000081525060200191505060405180910390fd5b813373ffffffffffffffffffffffffffffffffffffffff167f751585bc5f774dca8c2042dbb5677cb7b03ed3032d1b7c5c198243c9d75b56f542846040518083815260200180602001828103825283818151815260200191508051906020019080838360005b8381101561167a57808201518184015260208101905061165f565b50505050905090810190601f1680156116a75780820380516001836020036101000a031916815260200191505b50935050505060405180910390a35050565b600082600073ffffffffffffffffffffffffffffffffffffffff166004600083815260200190815260200160002060000160009054906101000a900473ffffffffffffffffffffffffffffffffffffffff1673ffffffffffffffffffffffffffffffffffffffff161415611795576040517f08c379a00000000000000000000000000000000000000000000000000000000081526004018080602001828103825260108152602001807f76616c69644b65792829206572726f720000000000000000000000000000000081525060200191505060405180910390fd5b60076000858560405160200180838152602001828152602001925050506040516020818303038152906040528051906020012081526020019081526020016000205491505092915050565b600080600080600085600073ffffffffffffffffffffffffffffffffffffffff166004600083815260200190815260200160002060000160009054906101000a900473ffffffffffffffffffffffffffffffffffffffff1673ffffffffffffffffffffffffffffffffffffffff1614156118c2576040517f08c379a00000000000000000000000000000000000000000000000000000000081526004018080602001828103825260108152602001807f76616c69644b65792829206572726f720000000000000000000000000000000081525060200191505060405180910390fd5b6004600088815260200190815260200160002060000160009054906101000a900473ffffffffffffffffffffffffffffffffffffffff166004600089815260200190815260200160002060000160149054906101000a900460ff16600460008a815260200190815260200160002060000160159054906101000a900460ff16600460008b815260200190815260200160002060000160169054906101000a900460ff16600460008c815260200190815260200160002060010154955095509550955095505091939590929450565b8161199b8133612188565b611a0d576040517f08c379a000000000000000000000000000000000000000000000000000000000815260040180806020018281038252600f8152602001807f6f776e734b65792829206572726f72000000000000000000000000000000000081525060200191505060405180910390fd5b81600073ffffffffffffffffffffffffffffffffffffffff166004600083815260200190815260200160002060000160009054906101000a900473ffffffffffffffffffffffffffffffffffffffff1673ffffffffffffffffffffffffffffffffffffffff161415611ae7576040517f08c379a00000000000000000000000000000000000000000000000000000000081526004018080602001828103825260108152602001807f76616c69644b65792829206572726f720000000000000000000000000000000081525060200191505060405180910390fd5b836004600082815260200190815260200160002060000160159054906101000a900460ff16611b61576040517f08c379a000000000000000000000000000000000000000000000000000000000815260040180806020018281038252602381526020018061518d6023913960400191505060405180910390fd5b6000600660008381526020019081526020016000208054905014611bd0576040517f08c379a00000000000000000000000000000000000000000000000000000000081526004018080602001828103825260238152602001806151236023913960400191505060405180910390fd5b836004600082815260200190815260200160002060000160159054906101000a900460ff16611c4a576040517f08c379a000000000000000000000000000000000000000000000000000000000815260040180806020018281038252602381526020018061518d6023913960400191505060405180910390fd5b6000600660008381526020019081526020016000208054905014611cb9576040517f08c379a00000000000000000000000000000000000000000000000000000000081526004018080602001828103825260238152602001806151236023913960400191505060405180910390fd5b611cc286613d09565b846009600088815260200190815260200160002081905550505050505050565b60058181548110611cef57fe5b906000526020600020016000915090505481565b606081600073ffffffffffffffffffffffffffffffffffffffff166004600083815260200190815260200160002060000160009054906101000a900473ffffffffffffffffffffffffffffffffffffffff1673ffffffffffffffffffffffffffffffffffffffff161415611ddf576040517f08c379a00000000000000000000000000000000000000000000000000000000081526004018080602001828103825260108152602001807f76616c69644b65792829206572726f720000000000000000000000000000000081525060200191505060405180910390fd5b60026000600460008681526020019081526020016000206001015481526020019081526020016000206000018054600181600116156101000203166002900480601f016020809104026020016040519081016040528092919081815260200182805460018160011615610100020316600290048015611e9f5780601f10611e7457610100808354040283529160200191611e9f565b820191906000526020600020905b815481529060010190602001808311611e8257829003601f168201915b5050505050915050919050565b81611eb78133612662565b611f29576040517f08c379a00000000000000000000000000000000000000000000000000000000081526004018080602001828103825260138152602001807f6f776e73536572766963652829206572726f720000000000000000000000000081525060200191505060405180910390fd5b81600260008581526020019081526020016000206000019080519060200190611f53929190615051565b50505050565b80611f648133612188565b611fd6576040517f08c379a000000000000000000000000000000000000000000000000000000000815260040180806020018281038252600f8152602001807f6f776e734b65792829206572726f72000000000000000000000000000000000081525060200191505060405180910390fd5b6000801b60096000848152602001908152602001600020819055505050565b606081600073ffffffffffffffffffffffffffffffffffffffff166002600083815260200190815260200160002060010160009054906101000a900473ffffffffffffffffffffffffffffffffffffffff1673ffffffffffffffffffffffffffffffffffffffff1614156120d1576040517f08c379a00000000000000000000000000000000000000000000000000000000081526004018080602001828103825260148152602001807f76616c6964536572766963652829206572726f7200000000000000000000000081525060200191505060405180910390fd5b600260008481526020019081526020016000206000018054600181600116156101000203166002900480601f01602080910402602001604051908101604052809291908181526020018280546001816001161561010002031660029004801561217b5780601f106121505761010080835404028352916020019161217b565b820191906000526020600020905b81548152906001019060200180831161215e57829003601f168201915b5050505050915050919050565b600082600073ffffffffffffffffffffffffffffffffffffffff166004600083815260200190815260200160002060000160009054906101000a900473ffffffffffffffffffffffffffffffffffffffff1673ffffffffffffffffffffffffffffffffffffffff161415612264576040517f08c379a00000000000000000000000000000000000000000000000000000000081526004018080602001828103825260108152602001807f76616c69644b65792829206572726f720000000000000000000000000000000081525060200191505060405180910390fd5b8273ffffffffffffffffffffffffffffffffffffffff166004600086815260200190815260200160002060000160009054906101000a900473ffffffffffffffffffffffffffffffffffffffff1673ffffffffffffffffffffffffffffffffffffffff1614156122d757600191506123be565b6004600085815260200190815260200160002060000160149054906101000a900460ff16156123b95760008090505b60066000868152602001908152602001600020805490508110156123b7578373ffffffffffffffffffffffffffffffffffffffff1660066000878152602001908152602001600020828154811061235957fe5b9060005260206000200160009054906101000a900473ffffffffffffffffffffffffffffffffffffffff1673ffffffffffffffffffffffffffffffffffffffff1614156123aa5760019250506123be565b8080600101915050612306565b505b600091505b5092915050565b6000600380549050905090565b60003382604051602001808373ffffffffffffffffffffffffffffffffffffffff1673ffffffffffffffffffffffffffffffffffffffff16815260200180602001828103825283818151815260200191508051906020019080838360005b8381101561244b578082015181840152602081019050612430565b50505050905090810190601f1680156124785780820380516001836020036101000a031916815260200191505b509350505050604051602081830303815290604052805190602001209050600073ffffffffffffffffffffffffffffffffffffffff166002600083815260200190815260200160002060010160009054906101000a900473ffffffffffffffffffffffffffffffffffffffff1673ffffffffffffffffffffffffffffffffffffffff161461256e576040517f08c379a00000000000000000000000000000000000000000000000000000000081526004018080602001828103825260158152602001807f637265617465536572766963652829206572726f72000000000000000000000081525060200191505060405180910390fd5b336002600083815260200190815260200160002060010160006101000a81548173ffffffffffffffffffffffffffffffffffffffff021916908373ffffffffffffffffffffffffffffffffffffffff160217905550816002600083815260200190815260200160002060000190805190602001906125ed929190615051565b506003819080600181540180825580915050906001820390600052602060002001600090919290919091505550803373ffffffffffffffffffffffffffffffffffffffff167fd36f66ac721d427dbc1c2a9446595112bde319fb09bf868c7e6352d8da9b4fc560405160405180910390a35050565b600082600073ffffffffffffffffffffffffffffffffffffffff166002600083815260200190815260200160002060010160009054906101000a900473ffffffffffffffffffffffffffffffffffffffff1673ffffffffffffffffffffffffffffffffffffffff16141561273e576040517f08c379a00000000000000000000000000000000000000000000000000000000081526004018080602001828103825260148152602001807f76616c6964536572766963652829206572726f7200000000000000000000000081525060200191505060405180910390fd5b8273ffffffffffffffffffffffffffffffffffffffff166002600086815260200190815260200160002060010160009054906101000a900473ffffffffffffffffffffffffffffffffffffffff1673ffffffffffffffffffffffffffffffffffffffff1614156127b1576001915061286e565b60008090505b6006600086815260200190815260200160002080549050811015612868578373ffffffffffffffffffffffffffffffffffffffff1660066000878152602001908152602001600020828154811061280a57fe5b9060005260206000200160009054906101000a900473ffffffffffffffffffffffffffffffffffffffff1673ffffffffffffffffffffffffffffffffffffffff16141561285b57600192505061286e565b80806001019150506127b7565b50600091505b5092915050565b60096020528060005260406000206000915090505481565b600160149054906101000a900460ff1681565b83600073ffffffffffffffffffffffffffffffffffffffff166004600083815260200190815260200160002060000160009054906101000a900473ffffffffffffffffffffffffffffffffffffffff1673ffffffffffffffffffffffffffffffffffffffff16141561297a576040517f08c379a00000000000000000000000000000000000000000000000000000000081526004018080602001828103825260108152602001807f76616c69644b65792829206572726f720000000000000000000000000000000081525060200191505060405180910390fd5b600460008681526020019081526020016000206001015461299b8133612662565b612a0d576040517f08c379a00000000000000000000000000000000000000000000000000000000081526004018080602001828103825260138152602001807f6f776e73536572766963652829206572726f720000000000000000000000000081525060200191505060405180910390fd5b846004600088815260200190815260200160002060000160146101000a81548160ff021916908315150217905550600015158515151415612a6a5760006006600088815260200190815260200160002081612a6891906150d1565b505b836004600088815260200190815260200160002060000160156101000a81548160ff021916908315150217905550600015158415151415612ac1576000801b60096000888152602001908152602001600020819055505b826004600088815260200190815260200160002060000160166101000a81548160ff021916908315150217905550600015158315151415612b9e5760006008600088815260200190815260200160002060000160006101000a81548173ffffffffffffffffffffffffffffffffffffffff021916908373ffffffffffffffffffffffffffffffffffffffff1602179055506000600860008881526020019081526020016000206001018190555060006008600088815260200190815260200160002060020160006101000a81548160ff0219169083151502179055505b505050505050565b612bae61385d565b612c20576040517f08c379a00000000000000000000000000000000000000000000000000000000081526004018080602001828103825260208152602001807f4f776e61626c653a2063616c6c6572206973206e6f7420746865206f776e657281525060200191505060405180910390fd5b600073ffffffffffffffffffffffffffffffffffffffff166000809054906101000a900473ffffffffffffffffffffffffffffffffffffffff1673ffffffffffffffffffffffffffffffffffffffff167f8be0079c531659141344cd1fd0a4f28419497f9722a3daafe3b4186f6b6457e060405160405180910390a360008060006101000a81548173ffffffffffffffffffffffffffffffffffffffff021916908373ffffffffffffffffffffffffffffffffffffffff160217905550565b81612cea8133612662565b612d5c576040517f08c379a00000000000000000000000000000000000000000000000000000000081526004018080602001828103825260138152602001807f6f776e73536572766963652829206572726f720000000000000000000000000081525060200191505060405180910390fd5b60001515612d6a8484612662565b15151415612dea57600660008481526020019081526020016000208290806001815401808255809150509060018203906000526020600020016000909192909190916101000a81548173ffffffffffffffffffffffffffffffffffffffff021916908373ffffffffffffffffffffffffffffffffffffffff160217905550505b505050565b600060018585858560405160008152602001604052604051808581526020018460ff1660ff1681526020018381526020018281526020019450505050506020604051602081039080840390855afa158015612e4e573d6000803e3d6000fd5b505050602060405103519050949350505050565b81612e6d8133612188565b612edf576040517f08c379a000000000000000000000000000000000000000000000000000000000815260040180806020018281038252600f8152602001807f6f776e734b65792829206572726f72000000000000000000000000000000000081525060200191505060405180910390fd5b81600073ffffffffffffffffffffffffffffffffffffffff166004600083815260200190815260200160002060000160009054906101000a900473ffffffffffffffffffffffffffffffffffffffff1673ffffffffffffffffffffffffffffffffffffffff161415612fb9576040517f08c379a00000000000000000000000000000000000000000000000000000000081526004018080602001828103825260108152602001807f76616c69644b65792829206572726f720000000000000000000000000000000081525060200191505060405180910390fd5b836004600082815260200190815260200160002060000160159054906101000a900460ff16613033576040517f08c379a000000000000000000000000000000000000000000000000000000000815260040180806020018281038252602381526020018061518d6023913960400191505060405180910390fd5b60006006600083815260200190815260200160002080549050146130a2576040517f08c379a00000000000000000000000000000000000000000000000000000000081526004018080602001828103825260238152602001806151236023913960400191505060405180910390fd5b836004600082815260200190815260200160002060000160159054906101000a900460ff1661311c576040517f08c379a000000000000000000000000000000000000000000000000000000000815260040180806020018281038252602381526020018061518d6023913960400191505060405180910390fd5b600060066000838152602001908152602001600020805490501461318b576040517f08c379a00000000000000000000000000000000000000000000000000000000081526004018080602001828103825260238152602001806151236023913960400191505060405180910390fd5b85600960008781526020019081526020016000205414613213576040517f08c379a00000000000000000000000000000000000000000000000000000000081526004018080602001828103825260108152602001807f74726164654b65792829206572726f720000000000000000000000000000000081525060200191505060405180910390fd5b85857fe8029b3dfdd85fbfbb1e010958afbb9389efda415a6c86da17733916fc6c871c60405160405180910390a36004600086815260200190815260200160002060000160009054906101000a900473ffffffffffffffffffffffffffffffffffffffff166004600088815260200190815260200160002060000160006101000a81548173ffffffffffffffffffffffffffffffffffffffff021916908373ffffffffffffffffffffffffffffffffffffffff160217905550336004600087815260200190815260200160002060000160006101000a81548173ffffffffffffffffffffffffffffffffffffffff021916908373ffffffffffffffffffffffffffffffffffffffff16021790555061332a85611f59565b505050505050565b8161333d8133612662565b6133af576040517f08c379a00000000000000000000000000000000000000000000000000000000081526004018080602001828103825260138152602001807f6f776e73536572766963652829206572726f720000000000000000000000000081525060200191505060405180910390fd5b6000838342604051602001808481526020018373ffffffffffffffffffffffffffffffffffffffff1673ffffffffffffffffffffffffffffffffffffffff1681526020018281526020019350505050604051602081830303815290604052805190602001209050600073ffffffffffffffffffffffffffffffffffffffff166004600083815260200190815260200160002060000160009054906101000a900473ffffffffffffffffffffffffffffffffffffffff1673ffffffffffffffffffffffffffffffffffffffff16146134ee576040517f08c379a00000000000000000000000000000000000000000000000000000000081526004018080602001828103825260108152602001807f69737375654b65792829206572726f720000000000000000000000000000000081525060200191505060405180910390fd5b826004600083815260200190815260200160002060000160006101000a81548173ffffffffffffffffffffffffffffffffffffffff021916908373ffffffffffffffffffffffffffffffffffffffff1602179055508360046000838152602001908152602001600020600101819055506005819080600181540180825580915050906001820390600052602060002001600090919290919091505550808373ffffffffffffffffffffffffffffffffffffffff167f86e615d05af39b08690ecc0b847f5622a2664e0d944f3381f2088fcd0a4cbfb760405160405180910390a350505050565b836135df8133612188565b613651576040517f08c379a000000000000000000000000000000000000000000000000000000000815260040180806020018281038252600f8152602001807f6f776e734b65792829206572726f72000000000000000000000000000000000081525060200191505060405180910390fd5b846004600082815260200190815260200160002060000160169054906101000a900460ff166136cb576040517f08c379a000000000000000000000000000000000000000000000000000000000815260040180806020018281038252602181526020018061516c6021913960400191505060405180910390fd5b600060066000838152602001908152602001600020805490501461373a576040517f08c379a00000000000000000000000000000000000000000000000000000000081526004018080602001828103825260228152602001806151da6022913960400191505060405180910390fd5b61374386611f59565b846008600088815260200190815260200160002060000160006101000a81548173ffffffffffffffffffffffffffffffffffffffff021916908373ffffffffffffffffffffffffffffffffffffffff160217905550836008600088815260200190815260200160002060010181905550826008600088815260200190815260200160002060020160006101000a81548160ff021916908315150217905550505050505050565b6006602052816000526040600020818154811061380257fe5b906000526020600020016000915091509054906101000a900473ffffffffffffffffffffffffffffffffffffffff1681565b60008060009054906101000a900473ffffffffffffffffffffffffffffffffffffffff16905090565b60008060009054906101000a900473ffffffffffffffffffffffffffffffffffffffff1673ffffffffffffffffffffffffffffffffffffffff163373ffffffffffffffffffffffffffffffffffffffff1614905090565b806138bf8133612662565b613931576040517f08c379a00000000000000000000000000000000000000000000000000000000081526004018080602001828103825260138152602001807f6f776e73536572766963652829206572726f720000000000000000000000000081525060200191505060405180910390fd5b61393b8233613332565b5050565b600073ffffffffffffffffffffffffffffffffffffffff166004600086815260200190815260200160002060000160009054906101000a900473ffffffffffffffffffffffffffffffffffffffff1673ffffffffffffffffffffffffffffffffffffffff16141580156139b857506139b78433612188565b5b806139c957506139c88433612662565b5b613a3b576040517f08c379a00000000000000000000000000000000000000000000000000000000081526004018080602001828103825260118152602001807f6d6573736167652829206572726f72203100000000000000000000000000000081525060200191505060405180910390fd5b600073ffffffffffffffffffffffffffffffffffffffff166004600085815260200190815260200160002060000160009054906101000a900473ffffffffffffffffffffffffffffffffffffffff1673ffffffffffffffffffffffffffffffffffffffff16141580613b105750600073ffffffffffffffffffffffffffffffffffffffff166002600085815260200190815260200160002060010160009054906101000a900473ffffffffffffffffffffffffffffffffffffffff1673ffffffffffffffffffffffffffffffffffffffff1614155b613b82576040517f08c379a00000000000000000000000000000000000000000000000000000000081526004018080602001828103825260118152602001807f6d6573736167652829206572726f72203200000000000000000000000000000081525060200191505060405180910390fd5b82843373ffffffffffffffffffffffffffffffffffffffff167fa77bb7bcf55a99a19081ec9bc0859e390dcf444472438306fa9206c97fde509b428686604051808481526020018060200180602001838103835285818151815260200191508051906020019080838360005b83811015613c09578082015181840152602081019050613bee565b50505050905090810190601f168015613c365780820380516001836020036101000a031916815260200191505b50838103825284818151815260200191508051906020019080838360005b83811015613c6f578082015181840152602081019050613c54565b50505050905090810190601f168015613c9c5780820380516001836020036101000a031916815260200191505b509550505050505060405180910390a450505050565b60086020528060005260406000206000915090508060000160009054906101000a900473ffffffffffffffffffffffffffffffffffffffff16908060010154908060020160009054906101000a900460ff16905083565b80613d148133612188565b613d86576040517f08c379a000000000000000000000000000000000000000000000000000000000815260040180806020018281038252600f8152602001807f6f776e734b65792829206572726f72000000000000000000000000000000000081525060200191505060405180910390fd5b60006008600084815260200190815260200160002060000160006101000a81548173ffffffffffffffffffffffffffffffffffffffff021916908373ffffffffffffffffffffffffffffffffffffffff1602179055506000600860008481526020019081526020016000206001018190555060006008600084815260200190815260200160002060020160006101000a81548160ff0219169083151502179055505050565b600160009054906101000a900473ffffffffffffffffffffffffffffffffffffffff1681565b60076020528060005260406000206000915090505481565b806004600082815260200190815260200160002060000160169054906101000a900460ff16613ee3576040517f08c379a000000000000000000000000000000000000000000000000000000000815260040180806020018281038252602181526020018061516c6021913960400191505060405180910390fd5b6000600660008381526020019081526020016000208054905014613f52576040517f08c379a00000000000000000000000000000000000000000000000000000000081526004018080602001828103825260228152602001806151da6022913960400191505060405180910390fd5b3373ffffffffffffffffffffffffffffffffffffffff166008600084815260200190815260200160002060000160009054906101000a900473ffffffffffffffffffffffffffffffffffffffff1673ffffffffffffffffffffffffffffffffffffffff161461400c576040517f08c379a000000000000000000000000000000000000000000000000000000000815260040180806020018281038252602a8152602001806151b0602a913960400191505060405180910390fd5b3373ffffffffffffffffffffffffffffffffffffffff166004600084815260200190815260200160002060000160009054906101000a900473ffffffffffffffffffffffffffffffffffffffff1673ffffffffffffffffffffffffffffffffffffffff167fff5a258188f956e352ba67aa74078121714884d40a19d4219dc9e9aadcc30cef846008600087815260200190815260200160002060010154604051808381526020018281526020019250505060405180910390a3336004600084815260200190815260200160002060000160006101000a81548173ffffffffffffffffffffffffffffffffffffffff021916908373ffffffffffffffffffffffffffffffffffffffff1602179055506008600083815260200190815260200160002060020160009054906101000a900460ff166004600084815260200190815260200160002060000160166101000a81548160ff02191690831515021790555061417482613d09565b5050565b6003818154811061418557fe5b906000526020600020016000915090505481565b600060066000838152602001908152602001600020805490509050919050565b816141c48133612662565b614236576040517f08c379a00000000000000000000000000000000000000000000000000000000081526004018080602001828103825260138152602001807f6f776e73536572766963652829206572726f720000000000000000000000000081525060200191505060405180910390fd5b60008090505b60066000858152602001908152602001600020805490508110156143f8578273ffffffffffffffffffffffffffffffffffffffff1660066000868152602001908152602001600020828154811061428f57fe5b9060005260206000200160009054906101000a900473ffffffffffffffffffffffffffffffffffffffff1673ffffffffffffffffffffffffffffffffffffffff1614156143eb57600160066000868152602001908152602001600020805490500381146143bf576006600085815260200190815260200160002060016006600087815260200190815260200160002080549050038154811061432d57fe5b9060005260206000200160009054906101000a900473ffffffffffffffffffffffffffffffffffffffff1660066000868152602001908152602001600020828154811061437657fe5b9060005260206000200160006101000a81548173ffffffffffffffffffffffffffffffffffffffff021916908373ffffffffffffffffffffffffffffffffffffffff1602179055505b600660008581526020019081526020016000208054809190600190036143e591906150d1565b506143f8565b808060010191505061423c565b50505050565b816144098133612188565b61447b576040517f08c379a000000000000000000000000000000000000000000000000000000000815260040180806020018281038252600f8152602001807f6f776e734b65792829206572726f72000000000000000000000000000000000081525060200191505060405180910390fd5b60008090505b600660008581526020019081526020016000208054905081101561463d578273ffffffffffffffffffffffffffffffffffffffff166006600086815260200190815260200160002082815481106144d457fe5b9060005260206000200160009054906101000a900473ffffffffffffffffffffffffffffffffffffffff1673ffffffffffffffffffffffffffffffffffffffff1614156146305760016006600086815260200190815260200160002080549050038114614604576006600085815260200190815260200160002060016006600087815260200190815260200160002080549050038154811061457257fe5b9060005260206000200160009054906101000a900473ffffffffffffffffffffffffffffffffffffffff166006600086815260200190815260200160002082815481106145bb57fe5b9060005260206000200160006101000a81548173ffffffffffffffffffffffffffffffffffffffff021916908373ffffffffffffffffffffffffffffffffffffffff1602179055505b6006600085815260200190815260200160002080548091906001900361462a91906150d1565b5061463d565b8080600101915050614481565b50505050565b6060600082600073ffffffffffffffffffffffffffffffffffffffff166002600083815260200190815260200160002060010160009054906101000a900473ffffffffffffffffffffffffffffffffffffffff1673ffffffffffffffffffffffffffffffffffffffff161415614721576040517f08c379a00000000000000000000000000000000000000000000000000000000081526004018080602001828103825260148152602001807f76616c6964536572766963652829206572726f7200000000000000000000000081525060200191505060405180910390fd5b600260008581526020019081526020016000206000016002600086815260200190815260200160002060010160009054906101000a900473ffffffffffffffffffffffffffffffffffffffff16818054600181600116156101000203166002900480601f0160208091040260200160405190810160405280929190818152602001828054600181600116156101000203166002900480156148035780601f106147d857610100808354040283529160200191614803565b820191906000526020600020905b8154815290600101906020018083116147e657829003601f168201915b505050505091509250925050915091565b6000600580549050905090565b8161482c8133612188565b61489e576040517f08c379a000000000000000000000000000000000000000000000000000000000815260040180806020018281038252600f8152602001807f6f776e734b65792829206572726f72000000000000000000000000000000000081525060200191505060405180910390fd5b826004600082815260200190815260200160002060000160149054906101000a900460ff16614935576040517f08c379a00000000000000000000000000000000000000000000000000000000081526004018080602001828103825260108152602001807f63616e53686172652829206572726f720000000000000000000000000000000081525060200191505060405180910390fd5b600015156149438585612188565b151514156149c357600660008581526020019081526020016000208390806001815401808255809150509060018203906000526020600020016000909192909190916101000a81548173ffffffffffffffffffffffffffffffffffffffff021916908373ffffffffffffffffffffffffffffffffffffffff160217905550505b50505050565b6149d161385d565b614a43576040517f08c379a00000000000000000000000000000000000000000000000000000000081526004018080602001828103825260208152602001807f4f776e61626c653a2063616c6c6572206973206e6f7420746865206f776e657281525060200191505060405180910390fd5b614a4c81614f0d565b50565b82600073ffffffffffffffffffffffffffffffffffffffff166004600083815260200190815260200160002060000160009054906101000a900473ffffffffffffffffffffffffffffffffffffffff1673ffffffffffffffffffffffffffffffffffffffff161415614b29576040517f08c379a00000000000000000000000000000000000000000000000000000000081526004018080602001828103825260108152602001807f76616c69644b65792829206572726f720000000000000000000000000000000081525060200191505060405180910390fd5b6004600085815260200190815260200160002060010154614b4a8133612662565b614bbc576040517f08c379a00000000000000000000000000000000000000000000000000000000081526004018080602001828103825260138152602001807f6f776e73536572766963652829206572726f720000000000000000000000000081525060200191505060405180910390fd5b826007600087876040516020018083815260200182815260200192505050604051602081830303815290604052805190602001208152602001908152602001600020819055505050505050565b614c1161385d565b614c83576040517f08c379a00000000000000000000000000000000000000000000000000000000081526004018080602001828103825260208152602001807f4f776e61626c653a2063616c6c6572206973206e6f7420746865206f776e657281525060200191505060405180910390fd5b80600160006101000a81548173ffffffffffffffffffffffffffffffffffffffff021916908373ffffffffffffffffffffffffffffffffffffffff16021790555050565b81600073ffffffffffffffffffffffffffffffffffffffff166004600083815260200190815260200160002060000160009054906101000a900473ffffffffffffffffffffffffffffffffffffffff1673ffffffffffffffffffffffffffffffffffffffff161415614da1576040517f08c379a00000000000000000000000000000000000000000000000000000000081526004018080602001828103825260108152602001807f76616c69644b65792829206572726f720000000000000000000000000000000081525060200191505060405180910390fd5b6004600084815260200190815260200160002060010154614dc28133612662565b614e34576040517f08c379a00000000000000000000000000000000000000000000000000000000081526004018080602001828103825260138152602001807f6f776e73536572766963652829206572726f720000000000000000000000000081525060200191505060405180910390fd5b8360046000868152602001908152602001600020600101543373ffffffffffffffffffffffffffffffffffffffff167fdb85dc5d1abaeff114eb7b2c24069f51aec4e241c11d014937f33fe8b46a8df942876040518083815260200180602001828103825283818151815260200191508051906020019080838360005b83811015614ecc578082015181840152602081019050614eb1565b50505050905090810190601f168015614ef95780820380516001836020036101000a031916815260200191505b50935050505060405180910390a450505050565b600073ffffffffffffffffffffffffffffffffffffffff168173ffffffffffffffffffffffffffffffffffffffff161415614f93576040517f08c379a00000000000000000000000000000000000000000000000000000000081526004018080602001828103825260268152602001806151466026913960400191505060405180910390fd5b8073ffffffffffffffffffffffffffffffffffffffff166000809054906101000a900473ffffffffffffffffffffffffffffffffffffffff1673ffffffffffffffffffffffffffffffffffffffff167f8be0079c531659141344cd1fd0a4f28419497f9722a3daafe3b4186f6b6457e060405160405180910390a3806000806101000a81548173ffffffffffffffffffffffffffffffffffffffff021916908373ffffffffffffffffffffffffffffffffffffffff16021790555050565b828054600181600116156101000203166002900490600052602060002090601f016020900481019282601f1061509257805160ff19168380011785556150c0565b828001600101855582156150c0579182015b828111156150bf5782518255916020019190600101906150a4565b5b5090506150cd91906150fd565b5090565b8154818355818111156150f8578183600052602060002091820191016150f791906150fd565b5b505050565b61511f91905b8082111561511b576000816000905550600101615103565b5090565b9056fe63616e54726164652829206f776e6572735b6b65795d2e6c656e677468206572726f724f776e61626c653a206e6577206f776e657220697320746865207a65726f206164647265737363616e53656c6c2829206b65792063616e277420626520736f6c64206572726f7263616e54726164652829206b6579735b6b65795d2e63616e5472616465206572726f7270757263686173654b657928292073616c65734f66666572735b6b65795d2e6275796572206572726f7263616e53656c6c2829206b657920646f6573206e6f74206578697374206572726f72a165627a7a72305820bb8acf880abeeee73c68ef670a3d74720fb7449f3af03113738aa6b77c0b4cb90029",
  "source": "pragma solidity ^0.5.0;\n\nimport '../node_modules/openzeppelin-solidity/contracts/ownership/Ownable.sol';\nimport '../node_modules/openzeppelin-solidity/contracts/token/ERC20/ERC20.sol';\n\n/**\n* Health Decentralized Record Service (DRS)\n* This contract enables creation of services and keys which can\n* be managed, shared, traded, and sold using Health Cash (HLTH).\n*\n* These keys enable gatekeeper services and\n* cryptographically secure data exchanges.\n*/\n\ncontract HealthDRS is Ownable {\n\n//    ERC20 public token;\n   address public latestContract = address(this);\n   uint8 public version = 1;\n//    uint public minimumHold = 1000;\n\n   struct Service {\n       string url;\n       address owner;\n   }\n\n   struct Key {\n       address owner;\n       bool canShare;\n       bool canTrade;\n       bool canSell;\n       bytes32 service;\n   }\n\n   struct SalesOffer {\n       address buyer;\n       uint price;\n       bool canSell;\n   }\n\n   mapping (bytes32 => Service) public services;\n   bytes32[] public serviceList;\n\n   mapping(bytes32 => Key) keys;\n   bytes32[] public keyList;\n\n   mapping(bytes32 => address[]) public owners;\n   mapping(bytes32 => bytes32) public keyData;\n   mapping(bytes32 => SalesOffer) public salesOffers;\n   mapping(bytes32 => bytes32) public tradeOffers;\n\n   event ServiceCreated(address indexed _owner, bytes32 indexed _service);\n   event KeyCreated(address indexed _owner, bytes32 indexed _key);\n   event KeySold(bytes32 _key, address indexed _seller, address indexed _buyer, uint _price);\n   event KeysTraded(bytes32 indexed _key1, bytes32 indexed _key2);\n   event Access(address indexed _owner, bytes32 indexed _from, bytes32 indexed _to, uint _time, string _data);\n   event Message(address indexed _owner, bytes32 indexed _from, bytes32 indexed _to, uint _time, string _category, string _data);\n   event Log(address indexed _owner, bytes32 indexed _from, uint _time, string _data);\n\n   modifier validKey(bytes32 key) {\n     require(keys[key].owner != address(0), \"validKey() error\");\n     _;\n   }\n\n   modifier validService(bytes32 service) {\n     require(services[service].owner != address(0), \"validService() error\");\n     _;\n   }\n\n   modifier ownsKey(bytes32 key) {\n       require(isKeyOwner(key, msg.sender), \"ownsKey() error\");\n       _;\n   }\n   modifier ownsService(bytes32 service) {\n       require(isServiceOwner(service, msg.sender), \"ownsService() error\");\n       _;\n   }\n\n   modifier canSell(bytes32 key) {\n     require(keys[key].canSell, \"canSell() key can't be sold error\");\n     require(owners[key].length == 0, \"canSell() key does not exist error\");\n     _;\n   }\n\n   modifier canTrade(bytes32 key) {\n     require(keys[key].canTrade, \"canTrade() keys[key].canTrade error\");\n     require(owners[key].length == 0, \"canTrade() owners[key].length error\");\n     _;\n   }\n\n   modifier canShare(bytes32 key) {\n     require(keys[key].canShare, \"canShare() error\");\n     _;\n   }\n\n   //prevent accidentally sending/trapping ether\n   function() external {\n       revert(\"function() line 104 error\");\n   }\n\n   function isKeyOwner(bytes32 key, address account)\n       public\n       view\n       validKey(key)\n       returns (bool)\n   {\n       if (keys[key].owner == account) {\n           return true;\n       } else {\n           if (keys[key].canShare) {\n               for (uint i = 0; i < owners[key].length; i++) {\n                   if (owners[key][i] == account) {\n                       return true;\n                   }\n               }\n           }\n       }\n       return false;\n   }\n\n   function isServiceOwner(bytes32 service, address account)\n       public\n       view\n       validService(service)\n       returns (bool)\n   {\n       if (services[service].owner == account) {\n           return true;\n       } else {\n           for (uint i = 0; i < owners[service].length; i++) {\n               if (owners[service][i] == account) {\n                   return true;\n               }\n          }\n       }\n       return false;\n   }\n\n   function getUrl(bytes32 service)\n       public\n       view\n       validService(service)\n       returns (string memory)\n   {\n      return services[service].url;\n   }\n\n   function getUrlFromKey(bytes32 key)\n       public\n       view\n       validKey(key)\n       returns (string memory)\n   {\n       return services[keys[key].service].url;\n   }\n\n   function updateUrl(bytes32 service, string memory url)\n       public\n       ownsService(service)\n   {\n      services[service].url = url;\n   }\n\n   function getOwnersLength(bytes32 key)\n       public\n       view\n       returns (uint256)\n    {\n        return owners[key].length;\n    }\n\n   function setLatestContract(address _contract) public onlyOwner {\n       latestContract = _contract;\n   }\n\n  /**\n  * Create Services & Keys\n  * Keys can also be issued to accounts\n  */\n   function createService(string memory url)\n        public\n   {\n       bytes32 id = keccak256(abi.encode(msg.sender, url));\n       require(services[id].owner == address(0), \"createService() error\"); //prevent overwriting\n       services[id].owner = msg.sender;\n       services[id].url = url;\n       serviceList.push(id);\n       emit ServiceCreated(msg.sender, id);\n   }\n\n   function createKey(bytes32 service)\n       public\n       ownsService(service)\n   {\n       issueKey(service, msg.sender);\n   }\n\n   function issueKey(bytes32 service, address issueTo)\n       public\n       ownsService(service)\n   {\n       bytes32 id = keccak256(abi.encode(service, issueTo, now));\n       require(keys[id].owner == address(0), \"issueKey() error\");\n       keys[id].owner = issueTo;\n       keys[id].service = service;\n       keyList.push(id);\n       emit KeyCreated(issueTo, id);\n   }\n\n  /**\n  * Share Services and Keys\n  * allow owners to authorize other accounts\n  * a service can disable sharing for their keys.\n  * Can also unshare.\n  */\n   function shareKey(bytes32 key, address account)\n       public\n       ownsKey(key)\n       canShare(key)\n   {\n       if (isKeyOwner(key, account) == false) {\n           owners[key].push(account);\n       }\n   }\n\n   function shareService(bytes32 service, address account)\n       public\n       ownsService(service)\n   {\n       if (isServiceOwner(service, account) == false) {\n           owners[service].push(account);\n       }\n   }\n\n   function unshareKey(bytes32 key, address account)\n       public\n       ownsKey(key)\n   {\n       for (uint i = 0; i < owners[key].length; i++) {\n           if (owners[key][i] == account) {\n               if (i != owners[key].length - 1) {\n                   owners[key][i] = owners[key][owners[key].length - 1];\n               }\n               owners[key].length--;\n               break;\n           }\n       }\n   }\n\n   function unshareService(bytes32 service, address account)\n       public\n       ownsService(service)\n   {\n       for (uint i = 0; i < owners[service].length; i++) {\n           if (owners[service][i] == account) {\n               if (i != owners[service].length - 1) {\n                   owners[service][i] = owners[service][owners[service].length - 1];\n               }\n               owners[service].length--;\n               break;\n           }\n       }\n   }\n\n   /**\n   * Sell Keys\n   * Services have to authorize keys for sale.\n   * Key owners can disable key selling at time\n   * of sale to prevent re-selling.\n   */\n   function createSalesOffer(bytes32 key, address buyer, uint price, bool _canSell)\n       public\n       ownsKey(key)\n       canSell(key)\n   {\n       //cancel trade offer & create sales offer\n       cancelTradeOffer(key);\n       salesOffers[key].buyer = buyer;\n       salesOffers[key].price = price;\n       salesOffers[key].canSell = _canSell;\n   }\n\n   function cancelSalesOffer(bytes32 key)\n       public\n       ownsKey(key)\n   {\n       salesOffers[key].buyer = address(0);\n       salesOffers[key].price = 0;\n       salesOffers[key].canSell = false;\n   }\n\n   function purchaseKey(bytes32 key)\n       public\n       canSell(key)\n   {\n\n      //require explicit authority to spend tokens on the purchasers behalf\n      require(salesOffers[key].buyer == msg.sender, \"purchaseKey() salesOffers[key].buyer error\");\n\n      emit KeySold(key, keys[key].owner, msg.sender, salesOffers[key].price);\n      keys[key].owner = msg.sender;\n\n      //set canSell - allows for non-resellable keys\n      keys[key].canSell = salesOffers[key].canSell;\n\n      //remove sales offer\n      cancelSalesOffer(key);\n   }\n\n   /**\n   * Trade keys\n   * both keys have to be authorized\n   * to trade by their respective services.\n   */\n    function createTradeOffer(bytes32 have, bytes32 want)\n        public\n        ownsKey(have)\n        validKey(want)\n        canTrade(have)\n        canTrade(want)\n    {\n        //cancel sales offer & create a trade offer\n        cancelSalesOffer(have);\n        tradeOffers[have] = want;\n    }\n\n   function cancelTradeOffer(bytes32 key)\n       public\n       ownsKey(key)\n   {\n       tradeOffers[key] = bytes32(0); //remove the tradeOffer\n   }\n\n    function tradeKey(bytes32 have, bytes32 want)\n        public\n        ownsKey(have)\n        validKey(want)\n        canTrade(have)\n        canTrade(want)\n    {\n        require(tradeOffers[want] == have, \"tradeKey() error\");\n\n        emit KeysTraded(want, have);\n        //complete the trade\n        keys[have].owner = keys[want].owner;\n        keys[want].owner = msg.sender;\n\n        //remove trade offer\n        cancelTradeOffer(want);\n    }\n\n   /**\n   * Manage Keys\n   * Service owner can set key permissions\n   * disabling sharing, trading, or selling\n   * removes shared owners, active trade\n   * offers, and active sales offers respectively\n   *\n   * Should also be able to get a key and service,\n   * get a count of keys and services, and get\n   * a key and service key from the respective\n   * lists.\n   */\n   //service owner can set permissions\n   function setKeyPermissions(\n       bytes32 key,\n       bool canShare_,\n       bool canTrade_,\n       bool canSell_)\n       public\n       validKey(key)\n       ownsService(keys[key].service)\n   {\n       keys[key].canShare = canShare_;\n       if (canShare_ == false) {\n           owners[key].length = 0;\n       }\n\n       keys[key].canTrade = canTrade_;\n       if (canTrade_ == false) {\n           tradeOffers[key] = bytes32(0);\n       }\n\n       keys[key].canSell = canSell_;\n       if (canSell_ == false) {\n           salesOffers[key].buyer = address(0);\n           salesOffers[key].price = 0;\n           salesOffers[key].canSell = false;\n       }\n\n   }\n\n   function getServiceCount() public view returns (uint) {\n       return serviceList.length;\n   }\n\n   function getKeyCount() public view returns (uint) {\n       return keyList.length;\n   }\n\n   function getService(bytes32 service)\n       public\n       view\n       validService(service)\n       returns(string memory, address)\n   {\n      return (services[service].url, services[service].owner);\n   }\n\n   function getKey(bytes32 key)\n       public\n       view\n       validKey(key)\n       returns(address, bool, bool, bool, bytes32)\n   {\n      return (keys[key].owner,\n              keys[key].canShare,\n              keys[key].canTrade,\n              keys[key].canSell,\n              keys[key].service);\n   }\n\n   /**\n   * Key Data\n   * A service can store public data for its keys.\n   */\n   function setKeyData(bytes32 key, bytes32 dataKey, bytes32 dataValue)\n       public\n       validKey(key)\n       ownsService(keys[key].service)\n   {\n       keyData[keccak256(abi.encodePacked(key,dataKey))] = dataValue;\n   }\n\n   function getKeyData(bytes32 key, bytes32 dataKey)\n       public\n       view\n       validKey(key)\n       returns (bytes32)\n   {\n       return keyData[keccak256(abi.encodePacked(key,dataKey))];\n   }\n\n   /**\n   * ecrecover passthrough\n   */\n   function recoverAddress(\n       bytes32 msgHash,\n       uint8 v,\n       bytes32 r,\n       bytes32 s)\n       public\n       pure\n       returns (address)\n   {\n     return ecrecover(msgHash, v, r, s);\n   }\n\n   /**\n   * Logging & Messaging\n   * functions for creating an auditable record of activity.\n   * A service can log access from any of its keys.\n   */\n   function logAccess(bytes32 key, string memory data)\n       public\n       validKey(key)\n       ownsService(keys[key].service)\n   {\n       emit Access(msg.sender, keys[key].service, key, now, data);\n   }\n\n   //services and keys can log messages to each other\n   function message(bytes32 from, bytes32 to, string memory category, string memory data)\n       public\n   {\n       require((keys[from].owner != address(0) && isKeyOwner(from, msg.sender)) ||\n               isServiceOwner(from, msg.sender), \"message() error 1\");\n       require(keys[to].owner != address(0) || services[to].owner != address(0), \"message() error 2\");\n\n       emit Message(msg.sender, from, to, now, category, data);\n   }\n\n   //any key or service can log\n   function log(bytes32 from, string memory data)\n       public\n   {\n       require((keys[from].owner != address(0) && isKeyOwner(from, msg.sender)) ||\n                isServiceOwner(from, msg.sender), \"log() error\");\n\n       emit Log(msg.sender, from, now, data);\n   }\n\n}\n",
  "sourcePath": "/Users/kevincheli/Desktop/svh/drs/contracts/HealthDRS.sol",
  "compiler": {
    "name": "solc",
    "version": "0.5.8+commit.23d335f2.Emscripten.clang"
  },
  "schemaVersion": "3.0.11",
  "updatedAt": "2019-09-26T19:36:38.634Z",
  "devdoc": {
    "methods": {
      "isOwner()": {
        "details": "Returns true if the caller is the current owner."
      },
      "owner()": {
        "details": "Returns the address of the current owner."
      },
      "renounceOwnership()": {
        "details": "Leaves the contract without owner. It will not be possible to call `onlyOwner` functions anymore. Can only be called by the current owner.     * > Note: Renouncing ownership will leave the contract without an owner, thereby removing any functionality that is only available to the owner."
      },
      "transferOwnership(address)": {
        "details": "Transfers ownership of the contract to a new account (`newOwner`). Can only be called by the current owner."
      }
    }
  },
  "userdoc": {
    "methods": {
      "createSalesOffer(bytes32,address,uint256,bool)": {
        "notice": "Sell Keys Services have to authorize keys for sale. Key owners can disable key selling at time of sale to prevent re-selling."
      },
      "createService(string)": {
        "notice": "Create Services & Keys Keys can also be issued to accounts"
      },
      "createTradeOffer(bytes32,bytes32)": {
        "notice": "Trade keys both keys have to be authorized to trade by their respective services."
      },
      "logAccess(bytes32,string)": {
        "notice": "Logging & Messaging functions for creating an auditable record of activity. A service can log access from any of its keys."
      },
      "recoverAddress(bytes32,uint8,bytes32,bytes32)": {
        "notice": "ecrecover passthrough"
      },
      "setKeyData(bytes32,bytes32,bytes32)": {
        "notice": "Key Data A service can store public data for its keys."
      },
      "setKeyPermissions(bytes32,bool,bool,bool)": {
        "notice": "Manage Keys Service owner can set key permissions disabling sharing, trading, or selling removes shared owners, active trade offers, and active sales offers respectively   * Should also be able to get a key and service, get a count of keys and services, and get a key and service key from the respective lists."
      },
      "shareKey(bytes32,address)": {
        "notice": "Share Services and Keys allow owners to authorize other accounts a service can disable sharing for their keys. Can also unshare."
      }
    },
    "notice": "Health Decentralized Record Service (DRS) This contract enables creation of services and keys which can be managed, shared, traded, and sold using Health Cash (HLTH). * These keys enable gatekeeper services and cryptographically secure data exchanges."
  }
}